{
  "_format": "hh3-artifact-1",
  "contractName": "EntryPoint",
  "sourceName": "contracts/core/VotingPoll/EntryPoint.sol",
  "abi": [
    {
      "inputs": [
        {
          "internalType": "address",
          "name": "_merkleTreeAllowListImplementation",
          "type": "address"
        },
        {
          "internalType": "address",
          "name": "_syntheticRewardImplementation",
          "type": "address"
        },
        {
          "internalType": "address",
          "name": "_token",
          "type": "address"
        }
      ],
      "stateMutability": "nonpayable",
      "type": "constructor"
    },
    {
      "inputs": [
        {
          "internalType": "address",
          "name": "voter",
          "type": "address"
        },
        {
          "internalType": "bytes32",
          "name": "pollHash",
          "type": "bytes32"
        }
      ],
      "name": "AddressIsNotAllowed",
      "type": "error"
    },
    {
      "inputs": [
        {
          "internalType": "bytes32",
          "name": "pollHash",
          "type": "bytes32"
        },
        {
          "internalType": "bytes32",
          "name": "storageHash",
          "type": "bytes32"
        },
        {
          "internalType": "address",
          "name": "voter",
          "type": "address"
        }
      ],
      "name": "AlreadyVoted",
      "type": "error"
    },
    {
      "inputs": [
        {
          "internalType": "bytes32",
          "name": "_pollHash",
          "type": "bytes32"
        },
        {
          "internalType": "uint8",
          "name": "candidate",
          "type": "uint8"
        }
      ],
      "name": "CandidateDoesNotExist",
      "type": "error"
    },
    {
      "inputs": [],
      "name": "FailedDeployment",
      "type": "error"
    },
    {
      "inputs": [
        {
          "internalType": "uint256",
          "name": "balance",
          "type": "uint256"
        },
        {
          "internalType": "uint256",
          "name": "needed",
          "type": "uint256"
        }
      ],
      "name": "InsufficientBalance",
      "type": "error"
    },
    {
      "inputs": [
        {
          "internalType": "bytes32",
          "name": "pollHash",
          "type": "bytes32"
        }
      ],
      "name": "PollAlreadyExists",
      "type": "error"
    },
    {
      "inputs": [
        {
          "internalType": "bytes32",
          "name": "pollHash",
          "type": "bytes32"
        }
      ],
      "name": "PollDoesNotHaveVoterStorage",
      "type": "error"
    },
    {
      "inputs": [
        {
          "internalType": "bytes32",
          "name": "pollHash",
          "type": "bytes32"
        }
      ],
      "name": "PollHashDoesNotExist",
      "type": "error"
    },
    {
      "inputs": [
        {
          "internalType": "bytes32",
          "name": "pollHash",
          "type": "bytes32"
        },
        {
          "internalType": "uint256",
          "name": "commitToken",
          "type": "uint256"
        }
      ],
      "name": "PollNeedsCommitToken",
      "type": "error"
    },
    {
      "inputs": [
        {
          "internalType": "bytes32",
          "name": "pollHash",
          "type": "bytes32"
        },
        {
          "internalType": "address",
          "name": "sender",
          "type": "address"
        }
      ],
      "name": "SenderIsNotVoterOf",
      "type": "error"
    },
    {
      "inputs": [
        {
          "internalType": "uint256",
          "name": "version",
          "type": "uint256"
        }
      ],
      "name": "VersioningError",
      "type": "error"
    },
    {
      "inputs": [
        {
          "internalType": "bytes32",
          "name": "pollHash",
          "type": "bytes32"
        },
        {
          "internalType": "uint256",
          "name": "startDate",
          "type": "uint256"
        },
        {
          "internalType": "uint256",
          "name": "endData",
          "type": "uint256"
        }
      ],
      "name": "VotingIsNotActive",
      "type": "error"
    },
    {
      "inputs": [
        {
          "internalType": "address",
          "name": "creator",
          "type": "address"
        }
      ],
      "name": "insufficientBalance",
      "type": "error"
    },
    {
      "anonymous": false,
      "inputs": [
        {
          "indexed": true,
          "internalType": "bytes32",
          "name": "pollHash",
          "type": "bytes32"
        },
        {
          "indexed": false,
          "internalType": "bytes32",
          "name": "pollStorageLocationHash",
          "type": "bytes32"
        }
      ],
      "name": "PollBinded",
      "type": "event"
    },
    {
      "anonymous": false,
      "inputs": [
        {
          "indexed": true,
          "internalType": "bytes32",
          "name": "pollHash",
          "type": "bytes32"
        },
        {
          "indexed": true,
          "internalType": "address",
          "name": "voter",
          "type": "address"
        },
        {
          "indexed": false,
          "internalType": "uint8",
          "name": "selected",
          "type": "uint8"
        },
        {
          "indexed": false,
          "internalType": "bytes32",
          "name": "newPollVoterHash",
          "type": "bytes32"
        }
      ],
      "name": "VoteSucceeded",
      "type": "event"
    },
    {
      "anonymous": false,
      "inputs": [
        {
          "indexed": true,
          "internalType": "uint256",
          "name": "version",
          "type": "uint256"
        },
        {
          "indexed": true,
          "internalType": "bytes32",
          "name": "pollHash",
          "type": "bytes32"
        },
        {
          "indexed": false,
          "internalType": "bytes32",
          "name": "voterStorageHashLocation",
          "type": "bytes32"
        },
        {
          "indexed": false,
          "internalType": "uint256[]",
          "name": "candidateCount",
          "type": "uint256[]"
        }
      ],
      "name": "VotingPollCreated",
      "type": "event"
    },
    {
      "inputs": [
        {
          "internalType": "bytes32",
          "name": "_pollHash",
          "type": "bytes32"
        }
      ],
      "name": "getPollData",
      "outputs": [
        {
          "internalType": "uint256",
          "name": "ver",
          "type": "uint256"
        },
        {
          "internalType": "bytes32",
          "name": "voterStorageHashLocation",
          "type": "bytes32"
        },
        {
          "components": [
            {
              "internalType": "uint256",
              "name": "count",
              "type": "uint256"
            },
            {
              "internalType": "uint256",
              "name": "commitToken",
              "type": "uint256"
            }
          ],
          "internalType": "struct CandidateData[]",
          "name": "candidatesVotersCount",
          "type": "tuple[]"
        },
        {
          "internalType": "address",
          "name": "owner",
          "type": "address"
        },
        {
          "internalType": "address",
          "name": "syntheticRewardContract",
          "type": "address"
        }
      ],
      "stateMutability": "view",
      "type": "function"
    },
    {
      "inputs": [
        {
          "internalType": "bytes32",
          "name": "_pollHash",
          "type": "bytes32"
        }
      ],
      "name": "isContractValid",
      "outputs": [
        {
          "internalType": "bool",
          "name": "isExist",
          "type": "bool"
        }
      ],
      "stateMutability": "view",
      "type": "function"
    },
    {
      "inputs": [
        {
          "internalType": "bytes32",
          "name": "_pollHash",
          "type": "bytes32"
        }
      ],
      "name": "isPollHaveVoterStorage",
      "outputs": [
        {
          "internalType": "bool",
          "name": "isBinded",
          "type": "bool"
        }
      ],
      "stateMutability": "view",
      "type": "function"
    },
    {
      "inputs": [],
      "name": "merkleTreeAllowListImplementation",
      "outputs": [
        {
          "internalType": "address",
          "name": "",
          "type": "address"
        }
      ],
      "stateMutability": "view",
      "type": "function"
    },
    {
      "inputs": [
        {
          "components": [
            {
              "internalType": "uint256",
              "name": "versioning",
              "type": "uint256"
            },
            {
              "internalType": "string",
              "name": "title",
              "type": "string"
            },
            {
              "internalType": "string",
              "name": "description",
              "type": "string"
            },
            {
              "internalType": "bytes32",
              "name": "merkleRootHash",
              "type": "bytes32"
            },
            {
              "internalType": "bool",
              "name": "isPrivate",
              "type": "bool"
            },
            {
              "internalType": "string[]",
              "name": "candidates",
              "type": "string[]"
            },
            {
              "internalType": "uint8",
              "name": "candidatesTotal",
              "type": "uint8"
            },
            {
              "components": [
                {
                  "internalType": "uint256",
                  "name": "startDate",
                  "type": "uint256"
                },
                {
                  "internalType": "uint256",
                  "name": "endDate",
                  "type": "uint256"
                }
              ],
              "internalType": "struct VotingPollExpiry",
              "name": "expiry",
              "type": "tuple"
            },
            {
              "internalType": "uint256",
              "name": "rewardShare",
              "type": "uint256"
            },
            {
              "internalType": "bool",
              "name": "isTokenRequired",
              "type": "bool"
            }
          ],
          "internalType": "struct VotingPollDataArgument",
          "name": "_pollData",
          "type": "tuple"
        }
      ],
      "name": "newVotingPoll",
      "outputs": [],
      "stateMutability": "nonpayable",
      "type": "function"
    },
    {
      "inputs": [
        {
          "internalType": "bytes32",
          "name": "",
          "type": "bytes32"
        }
      ],
      "name": "pollHashToStorage",
      "outputs": [
        {
          "internalType": "bytes32",
          "name": "",
          "type": "bytes32"
        }
      ],
      "stateMutability": "view",
      "type": "function"
    },
    {
      "inputs": [
        {
          "internalType": "bytes32",
          "name": "",
          "type": "bytes32"
        },
        {
          "internalType": "address",
          "name": "",
          "type": "address"
        }
      ],
      "name": "pollStorageVoters",
      "outputs": [
        {
          "internalType": "uint8",
          "name": "selected",
          "type": "uint8"
        },
        {
          "internalType": "uint256",
          "name": "commitedToken",
          "type": "uint256"
        },
        {
          "internalType": "bool",
          "name": "isVoted",
          "type": "bool"
        }
      ],
      "stateMutability": "view",
      "type": "function"
    },
    {
      "inputs": [
        {
          "internalType": "bytes32",
          "name": "",
          "type": "bytes32"
        }
      ],
      "name": "polls",
      "outputs": [
        {
          "internalType": "uint256",
          "name": "version",
          "type": "uint256"
        },
        {
          "internalType": "address",
          "name": "owner",
          "type": "address"
        },
        {
          "internalType": "bool",
          "name": "isPrivate",
          "type": "bool"
        },
        {
          "internalType": "address",
          "name": "merkleRootContract",
          "type": "address"
        },
        {
          "internalType": "address",
          "name": "syntheticRewardContract",
          "type": "address"
        },
        {
          "internalType": "bytes32",
          "name": "pollVoterHash",
          "type": "bytes32"
        },
        {
          "internalType": "bytes32",
          "name": "voterStorageHashLocation",
          "type": "bytes32"
        },
        {
          "components": [
            {
              "internalType": "uint256",
              "name": "startDate",
              "type": "uint256"
            },
            {
              "internalType": "uint256",
              "name": "endDate",
              "type": "uint256"
            }
          ],
          "internalType": "struct VotingPollExpiry",
          "name": "expiry",
          "type": "tuple"
        },
        {
          "internalType": "bool",
          "name": "isTokenRequired",
          "type": "bool"
        }
      ],
      "stateMutability": "view",
      "type": "function"
    },
    {
      "inputs": [
        {
          "internalType": "bytes32",
          "name": "",
          "type": "bytes32"
        }
      ],
      "name": "storageHashToPoll",
      "outputs": [
        {
          "internalType": "bytes32",
          "name": "",
          "type": "bytes32"
        }
      ],
      "stateMutability": "view",
      "type": "function"
    },
    {
      "inputs": [],
      "name": "syntheticRewardImplementation",
      "outputs": [
        {
          "internalType": "address",
          "name": "",
          "type": "address"
        }
      ],
      "stateMutability": "view",
      "type": "function"
    },
    {
      "inputs": [],
      "name": "token",
      "outputs": [
        {
          "internalType": "contract IAGARO",
          "name": "",
          "type": "address"
        }
      ],
      "stateMutability": "view",
      "type": "function"
    },
    {
      "inputs": [],
      "name": "version",
      "outputs": [
        {
          "internalType": "uint256",
          "name": "",
          "type": "uint256"
        }
      ],
      "stateMutability": "view",
      "type": "function"
    },
    {
      "inputs": [
        {
          "components": [
            {
              "internalType": "bytes32",
              "name": "pollHash",
              "type": "bytes32"
            },
            {
              "internalType": "uint8",
              "name": "candidateSelected",
              "type": "uint8"
            },
            {
              "internalType": "bytes32[]",
              "name": "proofs",
              "type": "bytes32[]"
            },
            {
              "internalType": "uint256",
              "name": "commitToken",
              "type": "uint256"
            }
          ],
          "internalType": "struct VoteArgument",
          "name": "_voteData",
          "type": "tuple"
        }
      ],
      "name": "vote",
      "outputs": [],
      "stateMutability": "nonpayable",
      "type": "function"
    },
    {
      "inputs": [
        {
          "internalType": "bytes32",
          "name": "_pollHash",
          "type": "bytes32"
        }
      ],
      "name": "withdraw",
      "outputs": [],
      "stateMutability": "nonpayable",
      "type": "function"
    }
  ],
  "bytecode": "0x60e0346100b357601f611afc38819003918201601f19168301916001600160401b038311848410176100b7578084926060946040528339810103126100b357610047816100cb565b906100606040610059602084016100cb565b92016100cb565b60809290925260a0526001600160a01b031660c052604051611a1c90816100e0823960805181818161013b01526114c8015260a05181818161127c0152611588015260c05181818160c90152610b540152f35b5f80fd5b634e487b7160e01b5f52604160045260245ffd5b51906001600160a01b03821682036100b35756fe60806040526004361015610011575f80fd5b5f5f3560e01c80630442eb36146115b75780631ac0d1b114611573578063212d966c14610adc57806341359e18146109fa57806354fd4d50146109dd57806355458f4a14610928578063612a3b1a1461038e5780638aea240c146103645780638e19899e1461020f578063ca873fb91461019f578063d6f744861461016a578063dd5db90414610125578063ded72935146100fb5763fc0c546a146100b4575f80fd5b346100f857806003193601126100f8576040517f00000000000000000000000000000000000000000000000000000000000000006001600160a01b03168152602090f35b80fd5b50346100f85760203660031901126100f85760406020916004358152600483522054604051908152f35b50346100f857806003193601126100f8576040517f00000000000000000000000000000000000000000000000000000000000000006001600160a01b03168152602090f35b50346100f85760203660031901126100f85760206101956004355f52600360205260405f2054151590565b6040519015158152f35b50346100f85760403660031901126100f857602435906001600160a01b03821682036100f85760409060043581526002602052209060018060a01b03165f52602052606060405f2060ff8154169060ff600260018301549201541690604051928352602083015215156040820152f35b50346100f85760203660031901126100f85760043590818152600160205260408120916040519261023f846115e4565b8054845260018101546001600160a01b03808216602087015260a091821c60ff16151560408701526002830154811660608701526003830154166080860190815260048301549186019190915293610299600583016117b1565b60c082015261012060ff600960068501549460e085019586526102be60078201611650565b6101008601520154161515910152518252600260208181526040808520335f90815292529020015460ff161561034d5750905181906001600160a01b0316803b1561034a578180916024604051809481936351cff8d960e01b83523360048401525af1801561033f5761032e5750f35b816103389161162f565b6100f85780f35b6040513d84823e3d90fd5b50fd5b632d3dacd960e21b82526004523360245260449150fd5b50346100f85760203660031901126100f85760406020916004358152600383522054604051908152f35b50346100f85760203660031901126100f857600435906001600160401b0382116100f8578160040160806003198436030112610924576103ce3682611807565b8051835260016020526006604084200154815184526001602052600560408520015490156109105760ff602083015116809111156108f9575061041d81515f52600360205260405f2054151590565b156108e657518252600160205260066040832001549080359182845260016020526040842060405161044e816115e4565b8154815260018201546001600160a01b03808216602084015260a091821c60ff1615156040840152600284015481166060840190815260038501549091166080840190815260048501549284019290925290929091906104b0600582016117b1565b60c0830152600681015460e083015261012060ff60096104d260078501611650565b936101008601948552015416920191151582526104ef3687611807565b92516001600160a01b03168061081e575b505180518042108015610811575b6107ef575050511515806107e3575b6107c557606001519081610758575b5050602485019161053c836117a3565b95848652600160205260408620906005820197610559818a611900565b5080545f1981146107445761058592606492600161057a930190558b611900565b5092013582546118c7565b90556006810154604051602081019160a08201338452886040840152608060608401528a5480915260c083019a8a5260208a20908a5b81811061072357505050906105e88160049a9b6105f797969594608083015203601f19810183528261162f565b51902096879101553690611807565b818652600260208181526040808920335f90815292529020015490919060ff166106fc57606060ff60208401511692015160405192606084018481106001600160401b038211176106e857926106b09594926002926106ab956040528452602084019081526040840191600183528a528260205260408a2060018060a01b0333165f5260205260ff60405f2094511660ff1985541617845551600184015551151591019060ff801983541691151516179055565b6117a3565b9160ff6040519316835260208301527fe0fbfd92c1c576a19434bed5a6d754024a50aa5ecb73ee2444af65ee7a63d14060403393a380f35b634e487b7160e01b89526041600452602489fd5b80865260046020819052604087205463788efeb960e11b8852905260245233604452606485fd5b82548d5260018084015460208f01526040909d019c600290930192016105bb565b634e487b7160e01b8a52601160045260248afd5b516001600160a01b031690813b156107c1578591604483926040519485938492630d64b07160e01b845260048401523360248401525af180156107b6579085911561052c57816107a79161162f565b6107b257835f61052c565b8380fd5b6040513d87823e3d90fd5b8580fd5b858160606044935191015190633256fe8160e21b8352600452602452fd5b5060608101511561051d565b8892506020606494519201519163f3afae1160e01b8452600452602452604452fd5b506020820151421161050e565b604084015184519160405180926347a59e0160e11b82528c604483013360048501526040602485015282518091526020606485019301915b8181106108cd5750505091818060209403915afa9081156108c2578a91610893575b5061050057636369af9d60e11b895233600452602452604488fd5b6108b5915060203d6020116108bb575b6108ad818361162f565b8101906118e8565b5f610878565b503d6108a3565b6040513d8c823e3d90fd5b8251845286945060209384019390920191600101610856565b51635464131560e01b8352600452602482fd5b905163155d5f2760e11b8452600452602452604482fd5b815163564ba5c360e11b8552600452602484fd5b5080fd5b50346100f85760203660031901126100f8576040610140916004358152600160205220805490602060018201549160018060a01b0360028201541660018060a01b0360038301541660048301549060068401549260ff80600961098d60078901611650565b9701541697604051998a5260018060a01b038116888b015260a01c16151560408901526060880152608087015260a086015260c0850152805160e085015201516101008301521515610120820152f35b50346100f857806003193601126100f85760209054604051908152f35b50346100f85760203660031901126100f857600435610a27815f526001602052600660405f200154151590565b15610aca57815260016020526040812080549160068201549160018060a01b03600182015416610a66600560018060a01b0360038501541693016117b1565b926040519460a08601968652602086015260a060408601528351809652602060c08601940190955b808710610aa8575050839450606084015260808301520390f35b9093602060406001928288518051835201518382015201950196019590610a8e565b63564ba5c360e11b8252600452602490fd5b503461155c57602036600319011261155c576001600160401b036004351161155c576004803536819003910161016060031983011261155c575f54813503611560575f91606460043501356114c1575b610b3b3660e46004350161166e565b6040516370a0823160e01b8152336004820152859291907f00000000000000000000000000000000000000000000000000000000000000006001600160a01b031690602081602481855afa9081156114b6578891611480575b506101246004350135811061146d57879069021e19e0c9bab240000081106113e357505068056bc75e2d63100000915b610bd58361012460043501356118c7565b9081611272575b50505050845490610bfc610bf56024600435018661192d565b36916116a3565b90610c0f610bf56044600435018761192d565b906022190160043560a40135121561126e576001600160401b036004803560a48101350101351161126e576004803560a4810135019081013560051b360360249091011361126e57610c9f91610c76366004803560a481013501908101359060240161172a565b610cb1610c8760c4600435016117a3565b9360405195869460c0602087015260e086019061195f565b848103601f190160408601529061195f565b601f19838203016060840152815180825260208201916020808360051b8301019401928c915b83831061123b57505050505060ff610d09931660808301528460a08301523360c083015203601f19810183528261162f565b602081519101209360846004350192610d2184611696565b906101446004350190610d3382611696565b9360405197610d41896115e4565b358852602460043501356001600160401b03811161123757610d6a9060043691813501016116e8565b6020890152604460043501356001600160401b03811161123757610d959060043691813501016116e8565b6040890152606460043501356060890152610daf87611706565b60808901526001600160401b0360a4600435013511611233573660043560a48101350160230112156112335760ff9792918991610dfd366004803560a481013501908101359060240161172a565b60a0860152610e1060c460043501611795565b9460c08101958652610120610e48610e2d3660e46004350161166e565b9660e084019788526101246004350135610100850152611706565b9101528b604051602081019085825260208152610e6660408261162f565b5190209a8b96511694610e7886611713565b95610e86604051978861162f565b808752610e95601f1991611713565b01825b8181106111ff575050519660405199610eb08b6115e4565b8a52604060208b0192338452818c01921515835260608c019460018060a01b0316855260808c019560018060a01b0316865260a08c019681885260c08d0198895260e08d01998a526101008d019a8b526101208d019b15158c52815260016020522099518a5560018a019160018060a01b039060018060a01b03905116166001600160601b0360a01b83541617825551151581549060ff60a01b9060a01b169060ff60a01b191617905560018060a01b03905116600288019060018060a01b03166001600160601b0360a01b82541617905560018060a01b03905116600387019060018060a01b03166001600160601b0360a01b825416179055516004860155600585019051908151916801000000000000000083116111eb578154838355808410611184575b50602001908a5260208a208a915b83831061115a5750509151600686015550505180516007840155602001516008830155611026919060099051151591019060ff801983541691151516179055565b60018454018455828452600360205260408420546111465761108e9083855260036020528260408620558285526004602052836040862055837f018d30d928413724fb0b512d87e0e1168f761dec1fce4e4ec00463eec95ea42a6020604051868152a2611696565b15611097578280f35b82549060ff6110aa60c4600435016117a3565b16906110ce6110b883611713565b926110c6604051948561162f565b808452611713565b602083019190601f190136833760405192604084019184526040602085015251809152606083019190865b8181106111305750505090807fa1bcfafd397989e2df9f0e166ce48160663cb36250c599885beef9d603fdf791920390a35f808280f35b82518452602093840193909201916001016110f9565b631e2436ef60e31b84526004839052602484fd5b60026020826111786001945186906020600191805184550151910155565b01920192019190610fe5565b6001600160ff1b03811681036111d7576001600160ff1b03841684036111d757828c5260208c209060011b8101908460011b015b8181106111c55750610fd7565b808d600292558d6001820155016111b8565b634e487b7160e01b8c52601160045260248cfd5b634e487b7160e01b8b52604160045260248bfd5b91949697509294506020916040519061121782611614565b80825283820152828289010152018a9594928c94928e92610e98565b8980fd5b8a80fd5b9193969550919360208061125b600193601f198682030187528a5161195f565b9801930193019092879596949293610cd7565b8680fd5b90919294506112a07f0000000000000000000000000000000000000000000000000000000000000000611983565b906020810151905181039081116113cf578893926001600160a01b038316929190833b156107c1576040519163eb990c5960e01b835230600484015285602484015260448301526064820152848160848183875af19081156107b65785916113ba575b5050946040516323b872dd60e01b81523360048201528260248201526101246004350135604482015260208160648188885af180156107b65761139d575b508015610bdc57823b156107b257604484928360405195869485936340c10f1960e01b8552600485015260248401525af1801561033f57611384575b8080610bdc565b8161138e9161162f565b61139957845f61137d565b8480fd5b6113b59060203d6020116108bb576108ad818361162f565b611341565b816113c49161162f565b6107b257835f611303565b634e487b7160e01b89526011600452602489fd5b69010f0cf064dd5920000081106114075750506802b5e3af16b1880000915b610bc4565b68878678326eac900000811061142957505068015af1d78b58c4000091610bc4565b683635c9adc5dea00000811061144a575050678ac7230489e8000091610bc4565b681b1ae4d6e2ef500000909391931061140257674563918244f400009250610bc4565b636bf7c24360e01b885233600452602488fd5b90506020813d6020116114ae575b8161149b6020938361162f565b810103126114aa57515f610b94565b8780fd5b3d915061148e565b6040513d8a823e3d90fd5b91506114ec7f0000000000000000000000000000000000000000000000000000000000000000611983565b6001600160a01b038116803b1561155c575f6040518092632f84fd1f60e21b82523060048301526064600435013560248301528183604482800301925af180156115515761153c575b5091610b2c565b6115499194505f9061162f565b5f925f611535565b6040513d5f823e3d90fd5b5f80fd5b63127a86c960e11b5f523560045260245ffd5b3461155c575f36600319011261155c576040517f00000000000000000000000000000000000000000000000000000000000000006001600160a01b03168152602090f35b3461155c57602036600319011261155c5760206101956004355f526001602052600660405f200154151590565b61014081019081106001600160401b0382111761160057604052565b634e487b7160e01b5f52604160045260245ffd5b604081019081106001600160401b0382111761160057604052565b90601f801991011681019081106001600160401b0382111761160057604052565b9060405161165d81611614565b602060018294805484520154910152565b919082604091031261155c5760405161168681611614565b6020808294803584520135910152565b35801515810361155c5790565b9291926001600160401b03821161160057604051916116cc601f8201601f19166020018461162f565b82948184528183011161155c578281602093845f960137010152565b9080601f8301121561155c57816020611703933591016116a3565b90565b3590811515820361155c57565b6001600160401b0381116116005760051b60200190565b92919061173681611713565b93611744604051958661162f565b602085838152019160051b81019183831161155c5781905b83821061176a575050505050565b81356001600160401b03811161155c5760209161178a87849387016116e8565b81520191019061175c565b359060ff8216820361155c57565b3560ff8116810361155c5790565b9081546117bd81611713565b926117cb604051948561162f565b81845260208401905f5260205f205f915b8383106117e95750505050565b600260206001926117f985611650565b8152019201920191906117dc565b91909160808184031261155c5760405190608082018281106001600160401b038211176116005760405281938135835261184360208301611795565b602084015260408201356001600160401b03811161155c5782019080601f8301121561155c57813561187481611713565b92611882604051948561162f565b81845260208085019260051b82010192831161155c57602001905b8282106118b7575050506040830152606090810135910152565b813581526020918201910161189d565b919082018092116118d457565b634e487b7160e01b5f52601160045260245ffd5b9081602091031261155c5751801515810361155c5790565b8054821015611919575f5260205f209060011b01905f90565b634e487b7160e01b5f52603260045260245ffd5b903590601e198136030182121561155c57018035906001600160401b03821161155c5760200191813603831361155c57565b805180835260209291819084018484015e5f828201840152601f01601f1916010190565b6e5af43d82803e903d91602b57fd5bf390763d602d80600a3d3981f3363d3d373d3d3d363d7300000062ffffff8260881c16175f5260781b17602052603760095ff0906001600160a01b038216156119d757565b63b06ebf3d60e01b5f5260045ffdfea26469706673582212207b3e124a12793f2878da25ca746bae36f95463f78b3a94954126c370852855b664736f6c634300081c0033",
  "linkReferences": {},
  "deployedLinkReferences": {},
  "immutableReferences": {
    "2868": [
      {
        "length": 32,
        "start": 315
      },
      {
        "length": 32,
        "start": 5320
      }
    ],
    "2870": [
      {
        "length": 32,
        "start": 4732
      },
      {
        "length": 32,
        "start": 5512
      }
    ],
    "2873": [
      {
        "length": 32,
        "start": 201
      },
      {
        "length": 32,
        "start": 2900
      }
    ]
  },
  "inputSourceName": "project/contracts/core/VotingPoll/EntryPoint.sol",
  "buildInfoId": "solc-0_8_28-d48a09b4bd7ae38fa313d42a2e15ab05d240a6fc"
}