{
  "_format": "hh3-artifact-1",
  "contractName": "EntryPoint",
  "sourceName": "contracts/core/EntryPoint.sol",
  "abi": [
    {
      "anonymous": false,
      "inputs": [
        {
          "indexed": true,
          "internalType": "uint256",
          "name": "version",
          "type": "uint256"
        },
        {
          "indexed": true,
          "internalType": "bytes32",
          "name": "poolHash",
          "type": "bytes32"
        }
      ],
      "name": "VotingPoolCreated",
      "type": "event"
    },
    {
      "inputs": [
        {
          "components": [
            {
              "internalType": "string",
              "name": "title",
              "type": "string"
            },
            {
              "internalType": "string",
              "name": "description",
              "type": "string"
            },
            {
              "internalType": "uint8[]",
              "name": "candidates",
              "type": "uint8[]"
            },
            {
              "internalType": "address",
              "name": "owner",
              "type": "address"
            }
          ],
          "internalType": "struct VotingPoolDataArgument",
          "name": "_poolData",
          "type": "tuple"
        }
      ],
      "name": "newVotingPool",
      "outputs": [],
      "stateMutability": "nonpayable",
      "type": "function"
    },
    {
      "inputs": [],
      "name": "version",
      "outputs": [
        {
          "internalType": "uint256",
          "name": "",
          "type": "uint256"
        }
      ],
      "stateMutability": "view",
      "type": "function"
    }
  ],
  "bytecode": "0x6080604052348015600e575f5ffd5b506107878061001c5f395ff3fe608060405234801561000f575f5ffd5b5060043610610034575f3560e01c80632c97d9641461003857806354fd4d501461004d575b5f5ffd5b61004b610046366004610370565b610067565b005b6100555f5481565b60405190815260200160405180910390f35b5f61008d61007f5f54846100c290919063ffffffff16565b610088846104a3565b6100dc565b9050805f547fead8c96ea0437cff771139f490e69531ef29ef174ef015a6c49514661967a00f60405160405180910390a35050565b5f6100cd83836101af565b80519060200120905092915050565b5f60405180608001604052805f5481526020018460405160200161010291815260200190565b60408051601f1981840301815291815281516020928301208352858101518383015260608601516001600160a01b0316928101929092525f86815260018083529083902084518155848301519181019190915591830151805161016b92600285019201906102bb565b5060609190910151600390910180546001600160a01b0319166001600160a01b039092169190911790555f805490806101a3836105cd565b90915550929392505050565b60605f6101bc84806105f1565b8080601f0160208091040260200160405190810160405280939291908181526020018383808284375f9201829052509394506101ff9250505060208601866105f1565b8080601f0160208091040260200160405190810160405280939291908181526020018383808284375f92018290525093945061024292505050604087018761063b565b808060200260200160405190810160405280939291908181526020018383602002808284375f920182905250939450610285925050506080880160608901610681565b905083838383896040516020016102a09594939291906106c8565b60405160208183030381529060405294505050505092915050565b828054828255905f5260205f2090601f0160209004810192821561034c579160200282015f5b8382111561031e57835183826101000a81548160ff021916908360ff16021790555092602001926001016020815f010492830192600103026102e1565b801561034a5782816101000a81549060ff02191690556001016020815f0104928301926001030261031e565b505b5061035892915061035c565b5090565b5b80821115610358575f815560010161035d565b5f60208284031215610380575f5ffd5b813567ffffffffffffffff811115610396575f5ffd5b8201608081850312156103a7575f5ffd5b9392505050565b634e487b7160e01b5f52604160045260245ffd5b6040516080810167ffffffffffffffff811182821017156103e5576103e56103ae565b60405290565b604051601f8201601f1916810167ffffffffffffffff81118282101715610414576104146103ae565b604052919050565b5f82601f83011261042b575f5ffd5b813567ffffffffffffffff811115610445576104456103ae565b610458601f8201601f19166020016103eb565b81815284602083860101111561046c575f5ffd5b816020850160208301375f918101602001919091529392505050565b80356001600160a01b038116811461049e575f5ffd5b919050565b5f608082360312156104b3575f5ffd5b6104bb6103c2565b823567ffffffffffffffff8111156104d1575f5ffd5b6104dd3682860161041c565b825250602083013567ffffffffffffffff8111156104f9575f5ffd5b6105053682860161041c565b602083015250604083013567ffffffffffffffff811115610524575f5ffd5b830136601f820112610534575f5ffd5b803567ffffffffffffffff81111561054e5761054e6103ae565b8060051b61055e602082016103eb565b91825260208184018101929081019036841115610579575f5ffd5b6020850194505b838510156105ac578435925060ff8316831461059a575f5ffd5b82825260209485019490910190610580565b6040860152506105c29250505060608401610488565b606082015292915050565b5f600182016105ea57634e487b7160e01b5f52601160045260245ffd5b5060010190565b5f5f8335601e19843603018112610606575f5ffd5b83018035915067ffffffffffffffff821115610620575f5ffd5b602001915036819003821315610634575f5ffd5b9250929050565b5f5f8335601e19843603018112610650575f5ffd5b83018035915067ffffffffffffffff82111561066a575f5ffd5b6020019150600581901b3603821315610634575f5ffd5b5f60208284031215610691575f5ffd5b6103a782610488565b5f81518084528060208401602086015e5f602082860101526020601f19601f83011685010191505092915050565b60a081525f6106da60a083018861069a565b82810360208401526106ec818861069a565b8381036040850152865180825260208089019350909101905f5b8181101561072757835160ff16835260209384019390920191600101610706565b50506001600160a01b038616606085015291506107419050565b826080830152969550505050505056fea264697066735822122072f7755aee08f49f0bf482f8064c8e59105fe42368af6d1b61ac0b25e54e4a4f64736f6c634300081c0033",
  "linkReferences": {},
  "deployedLinkReferences": {},
  "immutableReferences": {},
  "inputSourceName": "project/contracts/core/EntryPoint.sol",
  "buildInfoId": "solc-0_8_28-c52347978d183f70c4e404cec858950e09750188"
}