{
  "_format": "hh3-artifact-1",
  "contractName": "EntryPoint",
  "sourceName": "contracts/core/voting/EntryPoint.sol",
  "abi": [
    {
      "inputs": [
        {
          "internalType": "address",
          "name": "_merkleAllowListImplementation",
          "type": "address"
        }
      ],
      "stateMutability": "nonpayable",
      "type": "constructor"
    },
    {
      "inputs": [
        {
          "internalType": "address",
          "name": "voter",
          "type": "address"
        },
        {
          "internalType": "bytes32",
          "name": "poolHash",
          "type": "bytes32"
        }
      ],
      "name": "AddressIsNotAllowed",
      "type": "error"
    },
    {
      "inputs": [
        {
          "internalType": "bytes32",
          "name": "poolHash",
          "type": "bytes32"
        },
        {
          "internalType": "bytes32",
          "name": "storageHash",
          "type": "bytes32"
        },
        {
          "internalType": "address",
          "name": "voter",
          "type": "address"
        }
      ],
      "name": "AlreadyVoted",
      "type": "error"
    },
    {
      "inputs": [
        {
          "internalType": "bytes32",
          "name": "_poolHash",
          "type": "bytes32"
        },
        {
          "internalType": "uint8",
          "name": "candidate",
          "type": "uint8"
        }
      ],
      "name": "CandidateDoesNotExist",
      "type": "error"
    },
    {
      "inputs": [],
      "name": "FailedDeployment",
      "type": "error"
    },
    {
      "inputs": [
        {
          "internalType": "uint256",
          "name": "balance",
          "type": "uint256"
        },
        {
          "internalType": "uint256",
          "name": "needed",
          "type": "uint256"
        }
      ],
      "name": "InsufficientBalance",
      "type": "error"
    },
    {
      "inputs": [
        {
          "internalType": "bytes32",
          "name": "poolHash",
          "type": "bytes32"
        }
      ],
      "name": "PoolAlreadyExists",
      "type": "error"
    },
    {
      "inputs": [
        {
          "internalType": "bytes32",
          "name": "poolHash",
          "type": "bytes32"
        }
      ],
      "name": "PoolDoesNotHaveVoterStorage",
      "type": "error"
    },
    {
      "inputs": [
        {
          "internalType": "bytes32",
          "name": "poolHash",
          "type": "bytes32"
        }
      ],
      "name": "PoolHashDoesNotExist",
      "type": "error"
    },
    {
      "inputs": [
        {
          "internalType": "uint256",
          "name": "version",
          "type": "uint256"
        }
      ],
      "name": "VersioningError",
      "type": "error"
    },
    {
      "inputs": [
        {
          "internalType": "bytes32",
          "name": "poolHash",
          "type": "bytes32"
        },
        {
          "internalType": "uint256",
          "name": "startDate",
          "type": "uint256"
        },
        {
          "internalType": "uint256",
          "name": "endData",
          "type": "uint256"
        }
      ],
      "name": "VotingIsNotActive",
      "type": "error"
    },
    {
      "anonymous": false,
      "inputs": [
        {
          "indexed": true,
          "internalType": "bytes32",
          "name": "poolHash",
          "type": "bytes32"
        },
        {
          "indexed": false,
          "internalType": "bytes32",
          "name": "poolStorageHash",
          "type": "bytes32"
        }
      ],
      "name": "PoolBinded",
      "type": "event"
    },
    {
      "anonymous": false,
      "inputs": [
        {
          "indexed": true,
          "internalType": "bytes32",
          "name": "poolHash",
          "type": "bytes32"
        },
        {
          "indexed": true,
          "internalType": "address",
          "name": "voter",
          "type": "address"
        },
        {
          "indexed": false,
          "internalType": "uint8",
          "name": "selected",
          "type": "uint8"
        },
        {
          "indexed": false,
          "internalType": "bytes32",
          "name": "newPoolVoterHash",
          "type": "bytes32"
        }
      ],
      "name": "VoteSucceeded",
      "type": "event"
    },
    {
      "anonymous": false,
      "inputs": [
        {
          "indexed": true,
          "internalType": "uint256",
          "name": "version",
          "type": "uint256"
        },
        {
          "indexed": true,
          "internalType": "bytes32",
          "name": "poolHash",
          "type": "bytes32"
        },
        {
          "indexed": false,
          "internalType": "bytes32",
          "name": "voterStorageHashLocation",
          "type": "bytes32"
        },
        {
          "indexed": false,
          "internalType": "uint256[]",
          "name": "candidateCount",
          "type": "uint256[]"
        }
      ],
      "name": "VotingPoolCreated",
      "type": "event"
    },
    {
      "inputs": [
        {
          "internalType": "bytes32",
          "name": "_poolHash",
          "type": "bytes32"
        }
      ],
      "name": "getPoolData",
      "outputs": [
        {
          "internalType": "uint256",
          "name": "ver",
          "type": "uint256"
        },
        {
          "internalType": "bytes32",
          "name": "voterStorageHashLocation",
          "type": "bytes32"
        },
        {
          "internalType": "uint256[]",
          "name": "candidatesVotersCount",
          "type": "uint256[]"
        },
        {
          "internalType": "address",
          "name": "owner",
          "type": "address"
        }
      ],
      "stateMutability": "view",
      "type": "function"
    },
    {
      "inputs": [
        {
          "internalType": "bytes32",
          "name": "_poolHash",
          "type": "bytes32"
        }
      ],
      "name": "isContractValid",
      "outputs": [
        {
          "internalType": "bool",
          "name": "isExist",
          "type": "bool"
        }
      ],
      "stateMutability": "view",
      "type": "function"
    },
    {
      "inputs": [
        {
          "internalType": "bytes32",
          "name": "_poolHash",
          "type": "bytes32"
        }
      ],
      "name": "isPoolHaveVoterStorage",
      "outputs": [
        {
          "internalType": "bool",
          "name": "isBinded",
          "type": "bool"
        }
      ],
      "stateMutability": "view",
      "type": "function"
    },
    {
      "inputs": [],
      "name": "merkleAllowListImplementation",
      "outputs": [
        {
          "internalType": "address",
          "name": "",
          "type": "address"
        }
      ],
      "stateMutability": "view",
      "type": "function"
    },
    {
      "inputs": [
        {
          "components": [
            {
              "internalType": "uint256",
              "name": "versioning",
              "type": "uint256"
            },
            {
              "internalType": "string",
              "name": "title",
              "type": "string"
            },
            {
              "internalType": "string",
              "name": "description",
              "type": "string"
            },
            {
              "internalType": "bytes32",
              "name": "merkleRootHash",
              "type": "bytes32"
            },
            {
              "internalType": "bool",
              "name": "isPrivate",
              "type": "bool"
            },
            {
              "internalType": "string[]",
              "name": "candidates",
              "type": "string[]"
            },
            {
              "internalType": "uint8",
              "name": "candidatesTotal",
              "type": "uint8"
            },
            {
              "components": [
                {
                  "internalType": "uint256",
                  "name": "startDate",
                  "type": "uint256"
                },
                {
                  "internalType": "uint256",
                  "name": "endDate",
                  "type": "uint256"
                }
              ],
              "internalType": "struct VotingPoolExpiry",
              "name": "expiry",
              "type": "tuple"
            }
          ],
          "internalType": "struct VotingPoolDataArgument",
          "name": "_poolData",
          "type": "tuple"
        }
      ],
      "name": "newVotingPool",
      "outputs": [],
      "stateMutability": "nonpayable",
      "type": "function"
    },
    {
      "inputs": [
        {
          "internalType": "bytes32",
          "name": "",
          "type": "bytes32"
        }
      ],
      "name": "poolHashToStorage",
      "outputs": [
        {
          "internalType": "bytes32",
          "name": "",
          "type": "bytes32"
        }
      ],
      "stateMutability": "view",
      "type": "function"
    },
    {
      "inputs": [
        {
          "internalType": "bytes32",
          "name": "",
          "type": "bytes32"
        },
        {
          "internalType": "address",
          "name": "",
          "type": "address"
        }
      ],
      "name": "poolStorageVoters",
      "outputs": [
        {
          "internalType": "uint8",
          "name": "selected",
          "type": "uint8"
        },
        {
          "internalType": "bool",
          "name": "isVoted",
          "type": "bool"
        }
      ],
      "stateMutability": "view",
      "type": "function"
    },
    {
      "inputs": [
        {
          "internalType": "bytes32",
          "name": "",
          "type": "bytes32"
        }
      ],
      "name": "pools",
      "outputs": [
        {
          "internalType": "uint256",
          "name": "version",
          "type": "uint256"
        },
        {
          "internalType": "address",
          "name": "owner",
          "type": "address"
        },
        {
          "internalType": "bool",
          "name": "isPrivate",
          "type": "bool"
        },
        {
          "internalType": "address",
          "name": "merkleRootContract",
          "type": "address"
        },
        {
          "internalType": "bytes32",
          "name": "poolVoterHash",
          "type": "bytes32"
        },
        {
          "internalType": "bytes32",
          "name": "voterStorageHashLocation",
          "type": "bytes32"
        },
        {
          "components": [
            {
              "internalType": "uint256",
              "name": "startDate",
              "type": "uint256"
            },
            {
              "internalType": "uint256",
              "name": "endDate",
              "type": "uint256"
            }
          ],
          "internalType": "struct VotingPoolExpiry",
          "name": "expiry",
          "type": "tuple"
        }
      ],
      "stateMutability": "view",
      "type": "function"
    },
    {
      "inputs": [
        {
          "internalType": "bytes32",
          "name": "",
          "type": "bytes32"
        }
      ],
      "name": "storageHashToPool",
      "outputs": [
        {
          "internalType": "bytes32",
          "name": "",
          "type": "bytes32"
        }
      ],
      "stateMutability": "view",
      "type": "function"
    },
    {
      "inputs": [],
      "name": "version",
      "outputs": [
        {
          "internalType": "uint256",
          "name": "",
          "type": "uint256"
        }
      ],
      "stateMutability": "view",
      "type": "function"
    },
    {
      "inputs": [
        {
          "components": [
            {
              "internalType": "bytes32",
              "name": "poolHash",
              "type": "bytes32"
            },
            {
              "internalType": "uint8",
              "name": "candidateSelected",
              "type": "uint8"
            },
            {
              "internalType": "bytes32[]",
              "name": "proofs",
              "type": "bytes32[]"
            }
          ],
          "internalType": "struct VoteArgument",
          "name": "_voteData",
          "type": "tuple"
        }
      ],
      "name": "vote",
      "outputs": [],
      "stateMutability": "nonpayable",
      "type": "function"
    }
  ],
  "bytecode": "0x60a0604052348015600e575f5ffd5b50604051611723380380611723833981016040819052602b91603b565b6001600160a01b03166080526066565b5f60208284031215604a575f5ffd5b81516001600160a01b0381168114605f575f5ffd5b9392505050565b60805161169e6100855f395f81816102b4015261072d015261169e5ff3fe608060405234801561000f575f5ffd5b50600436106100a6575f3560e01c80637da003961161006e5780637da0039614610170578063b140cc911461018f578063b5217bb4146101b0578063c2c8992c1461026d578063c657d6c61461028c578063d18d7dcb146102af575f5ffd5b80630442eb36146100aa57806350f8d24f146100e357806354fd4d50146100f857806360e21bf01461010e57806366b0ef061461015d575b5f5ffd5b6100ce6100b8366004610e95565b5f90815260016020526040902060050154151590565b60405190151581526020015b60405180910390f35b6100f66100f1366004610eac565b6102ee565b005b6101005f5481565b6040519081526020016100da565b61014461011c366004610eea565b600260209081525f928352604080842090915290825290205460ff8082169161010090041682565b6040805160ff90931683529015156020830152016100da565b6100f661016b366004610f23565b610427565b61010061017e366004610e95565b60036020525f908152604090205481565b6100ce61019d366004610e95565b5f90815260036020526040902054151590565b6102216101be366004610e95565b600160208181525f9283526040928390208054928101546002820154600383015460058401548751808901909852600685015488526007909401549487019490945293946001600160a01b0380831695600160a01b90930460ff16949216929087565b604080519788526001600160a01b039687166020808a019190915295151590880152949092166060860152608085015260a0840152815160c0840152015160e0820152610100016100da565b61010061027b366004610e95565b60046020525f908152604090205481565b61029f61029a366004610e95565b61065d565b6040516100da9493929190610f93565b6102d67f000000000000000000000000000000000000000000000000000000000000000081565b6040516001600160a01b0390911681526020016100da565b5f548135146103185760405163127a86c960e11b8152813560048201526024015b60405180910390fd5b5f606082013515610333576103308260600135610727565b90505b5f5f61036e61034e5f5433876107bd9092919063ffffffff16565b610357866111f2565b61036760a08801608089016112d1565b86336107d9565b9150915061037c8282610960565b61038c60a08501608086016112d1565b610421575f5482907f186c43afa62b830ea95715bc4513c1b4a25dcd1a0bfd45f6c931716de5bb896a836103c660e0890160c08a016112ec565b60ff166001600160401b038111156103e0576103e0610fca565b604051908082528060200260200182016040528015610409578160200160208202803683370190505b50604051610418929190611305565b60405180910390a35b50505050565b5f61043961043483611325565b6109e6565b82355f90815260016020818152604080842081516101008101835281548152938101546001600160a01b0380821686860152600160a01b90910460ff1615158584015260028201541660608501526003810154608085015260048101805483518186028101860190945280845296975094959394909360a08601938301828280156104e157602002820191905f5260205f20905b8154815260200190600101908083116104cd575b505050918352505060058201546020808301919091526040805180820182526006850154815260079094015491840191909152015260608101519091506001600160a01b0381161561057a576105788161053e60408701876113da565b808060200260200160405190810160405280939291908181526020018383602002808284375f920191909152505088359150339050610ab0565b505b60e08201515142108061059457508160e001516020015142115b156105cf5760e0820151805160209091015160405163f3afae1160e01b8152863560048201526024810192909252604482015260640161030f565b5f6105eb85356105e560408801602089016112ec565b33610b5a565b905061060784336106026040890160208a016112ec565b610be3565b3385357fe0fbfd92c1c576a19434bed5a6d754024a50aa5ecb73ee2444af65ee7a63d14061063b6040890160208a016112ec565b6040805160ff9092168252602082018690520160405180910390a35050505050565b5f5f60605f61067c855f90815260016020526040902060050154151590565b61069c5760405163e112ac0360e01b81526004810186905260240161030f565b5f858152600160208181526040928390208054600582015493820154600483018054875181870281018701909852808852939692959490936001600160a01b039092169291849183018282801561071057602002820191905f5260205f20905b8154815260200190600101908083116106fc575b505050505091509450945094509450509193509193565b5f61075a7f00000000000000000000000000000000000000000000000000000000000000006001600160a01b0316610ca8565b604051632f84fd1f60e21b8152306004820152602481018490529091506001600160a01b0382169063be13f47c906044015f604051808303815f87803b1580156107a2575f5ffd5b505af11580156107b4573d5f5f3e3d5ffd5b50505050919050565b5f6107c9848484610cb9565b8051906020012090509392505050565b5f5f5f876040516020016107ef91815260200190565b6040516020818303038152906040528051906020012090506040518061010001604052805f548152602001856001600160a01b031681526020018715158152602001866001600160a01b031681526020015f5f1b81526020018860c0015160ff166001600160401b0381111561086757610867610fca565b604051908082528060200260200182016040528015610890578160200160208202803683370190505b508152602080820184905260e08a01516040928301525f8b815260018083529083902084518155848301519181018054948601511515600160a01b026001600160a81b03199095166001600160a01b0393841617949094179093556060840151600284018054919092166001600160a01b0319919091161790556080830151600383015560a0830151805161092b9260048501920190610e38565b5060c0820151600582015560e09091015180516006830155602001516007909101555f80546001019055969795505050505050565b5f828152600360205260409020541561098f576040516375ce148f60e11b81526004810183905260240161030f565b5f8281526003602090815260408083208490558383526004825291829020849055905182815283917f739fc98b39f0a22c6aec302d3925faee33ca0230250457b1d419f233e06d2529910160405180910390a25050565b80515f9081526001602052604080822060050154835183529082206004015481610a2957835160405163e112ac0360e01b8152600481019190915260240161030f565b836020015160ff168111610a63578351602085015160405163155d5f2760e11b8152600481019290925260ff16602482015260440161030f565b83515f90815260036020526040902054610a96578351604051636d76042d60e11b8152600481019190915260240161030f565b505090515f90815260016020526040902060050154919050565b5f5f856001600160a01b0316638f4b3c0233876040518363ffffffff1660e01b8152600401610ae0929190611426565b602060405180830381865afa158015610afb573d5f5f3e3d5ffd5b505050506040513d601f19601f82011682018060405250810190610b1f919061147b565b905080610b5157604051636369af9d60e11b81526001600160a01b03841660048201526024810185905260440161030f565b95945050505050565b5f83815260016020526040812060048101805460ff8616908110610b8057610b80611496565b5f9182526020822001805491610b95836114aa565b91905055505f8386836004018460050154604051602001610bb994939291906114ce565b60408051601f19818403018152919052805160209091012060039092018290555090509392505050565b5f8381526002602090815260408083206001600160a01b0386168452909152902054610100900460ff1615610c55575f8381526004602081905260409182902054915163788efeb960e11b815290810191909152602481018490526001600160a01b038316604482015260640161030f565b60408051808201825260ff9283168152600160208083019182525f968752600281528387206001600160a01b03909616875294909452932092518354925115156101000261ffff19909316911617179055565b5f610cb3825f610da4565b92915050565b60605f610cc96020860186611535565b8080601f0160208091040260200160405190810160405280939291908181526020018383808284375f920182905250939450610d0c925050506040870187611535565b8080601f0160208091040260200160405190810160405280939291908181526020018383808284375f920182905250939450610d4f9250505060a08801886113da565b610d5891611577565b90505f610d6b60e0890160c08a016112ec565b9050838383838a8a604051602001610d88969594939291906115b1565b6040516020818303038152906040529450505050509392505050565b5f81471015610dcf5760405163cf47918160e01b81524760048201526024810183905260440161030f565b763d602d80600a3d3981f3363d3d373d3d3d363d730000008360601b60e81c175f526e5af43d82803e903d91602b57fd5bf38360781b176020526037600983f090506001600160a01b038116610cb35760405163b06ebf3d60e01b815260040160405180910390fd5b828054828255905f5260205f20908101928215610e71579160200282015b82811115610e71578251825591602001919060010190610e56565b50610e7d929150610e81565b5090565b5b80821115610e7d575f8155600101610e82565b5f60208284031215610ea5575f5ffd5b5035919050565b5f60208284031215610ebc575f5ffd5b81356001600160401b03811115610ed1575f5ffd5b82016101208185031215610ee3575f5ffd5b9392505050565b5f5f60408385031215610efb575f5ffd5b8235915060208301356001600160a01b0381168114610f18575f5ffd5b809150509250929050565b5f60208284031215610f33575f5ffd5b81356001600160401b03811115610f48575f5ffd5b820160608185031215610ee3575f5ffd5b5f8151808452602084019350602083015f5b82811015610f89578151865260209586019590910190600101610f6b565b5093949350505050565b848152836020820152608060408201525f610fb16080830185610f59565b905060018060a01b038316606083015295945050505050565b634e487b7160e01b5f52604160045260245ffd5b60405161010081016001600160401b038111828210171561100157611001610fca565b60405290565b604051606081016001600160401b038111828210171561100157611001610fca565b604051601f8201601f191681016001600160401b038111828210171561105157611051610fca565b604052919050565b5f82601f830112611068575f5ffd5b81356001600160401b0381111561108157611081610fca565b611094601f8201601f1916602001611029565b8181528460208386010111156110a8575f5ffd5b816020850160208301375f918101602001919091529392505050565b80151581146110d1575f5ffd5b50565b80356110df816110c4565b919050565b5f6001600160401b038211156110fc576110fc610fca565b5060051b60200190565b5f611118611113846110e4565b611029565b838152905060208101600584901b830185811115611134575f5ffd5b835b8181101561116e5780356001600160401b03811115611153575f5ffd5b61115f88828801611059565b84525060209283019201611136565b5050509392505050565b5f82601f830112611187575f5ffd5b610ee383833560208501611106565b803560ff811681146110df575f5ffd5b5f604082840312156111b6575f5ffd5b604080519081016001600160401b03811182821017156111d8576111d8610fca565b604052823581526020928301359281019290925250919050565b5f6101208236031215611203575f5ffd5b61120b610fde565b8235815260208301356001600160401b03811115611227575f5ffd5b61123336828601611059565b60208301525060408301356001600160401b03811115611251575f5ffd5b61125d36828601611059565b60408301525060608381013590820152611279608084016110d4565b608082015260a08301356001600160401b03811115611296575f5ffd5b6112a236828601611178565b60a0830152506112b460c08401611196565b60c08201526112c63660e085016111a6565b60e082015292915050565b5f602082840312156112e1575f5ffd5b8135610ee3816110c4565b5f602082840312156112fc575f5ffd5b610ee382611196565b828152604060208201525f61131d6040830184610f59565b949350505050565b5f60608236031215611335575f5ffd5b61133d611007565b8235815261134d60208401611196565b602082015260408301356001600160401b0381111561136a575f5ffd5b830136601f82011261137a575f5ffd5b8035611388611113826110e4565b8082825260208201915060208360051b8501019250368311156113a9575f5ffd5b6020840193505b828410156113cb5783358252602093840193909101906113b0565b60408501525091949350505050565b5f5f8335601e198436030181126113ef575f5ffd5b8301803591506001600160401b03821115611408575f5ffd5b6020019150600581901b360382131561141f575f5ffd5b9250929050565b6001600160a01b03831681526040602080830182905283519183018290525f91908401906060840190835b8181101561146f578351835260209384019390920191600101611451565b50909695505050505050565b5f6020828403121561148b575f5ffd5b8151610ee3816110c4565b634e487b7160e01b5f52603260045260245ffd5b5f600182016114c757634e487b7160e01b5f52601160045260245ffd5b5060010190565b6001600160a01b0385168152602080820185905260806040830181905284549083018190525f8581529182209060a0840190835b81811015611520578354835260019384019360209093019201611502565b50506060939093019390935250949350505050565b5f5f8335601e1984360301811261154a575f5ffd5b8301803591506001600160401b03821115611563575f5ffd5b60200191503681900382131561141f575f5ffd5b5f610ee3368484611106565b5f81518084528060208401602086015e5f602082860101526020601f19601f83011685010191505092915050565b60c081525f6115c360c0830189611583565b82810360208401526115d58189611583565b9050828103604084015280875180835260208301915060208160051b84010160208a015f5b8381101561162c57601f19868403018552611616838351611583565b60209586019590935091909101906001016115fa565b505060ff89166060870152935061164292505050565b83608083015261165d60a08301846001600160a01b03169052565b97965050505050505056fea2646970667358221220c5297cbb6e711a8eb054b57d55f8361571999de06710e20c796c5d52556d0b8c64736f6c634300081c0033",
  "linkReferences": {},
  "deployedLinkReferences": {},
  "immutableReferences": {
    "2174": [
      {
        "length": 32,
        "start": 692
      },
      {
        "length": 32,
        "start": 1837
      }
    ]
  },
  "inputSourceName": "project/contracts/core/voting/EntryPoint.sol",
  "buildInfoId": "solc-0_8_28-06d5a784fb2eef53b9db4a40a0afc971b95b8aea"
}