{
  "_format": "hh3-artifact-1",
  "contractName": "EntryPoint",
  "sourceName": "contracts/core/voting/EntryPoint.sol",
  "abi": [
    {
      "inputs": [
        {
          "internalType": "address",
          "name": "_merkleAllowListImplementation",
          "type": "address"
        }
      ],
      "stateMutability": "nonpayable",
      "type": "constructor"
    },
    {
      "inputs": [
        {
          "internalType": "address",
          "name": "voter",
          "type": "address"
        },
        {
          "internalType": "bytes32",
          "name": "poolHash",
          "type": "bytes32"
        }
      ],
      "name": "AddressIsNotAllowed",
      "type": "error"
    },
    {
      "inputs": [
        {
          "internalType": "bytes32",
          "name": "poolHash",
          "type": "bytes32"
        },
        {
          "internalType": "bytes32",
          "name": "storageHash",
          "type": "bytes32"
        },
        {
          "internalType": "address",
          "name": "voter",
          "type": "address"
        }
      ],
      "name": "AlreadyVoted",
      "type": "error"
    },
    {
      "inputs": [
        {
          "internalType": "bytes32",
          "name": "_poolHash",
          "type": "bytes32"
        },
        {
          "internalType": "uint8",
          "name": "candidate",
          "type": "uint8"
        }
      ],
      "name": "CandidateDoesNotExist",
      "type": "error"
    },
    {
      "inputs": [],
      "name": "FailedDeployment",
      "type": "error"
    },
    {
      "inputs": [
        {
          "internalType": "uint256",
          "name": "balance",
          "type": "uint256"
        },
        {
          "internalType": "uint256",
          "name": "needed",
          "type": "uint256"
        }
      ],
      "name": "InsufficientBalance",
      "type": "error"
    },
    {
      "inputs": [
        {
          "internalType": "bytes32",
          "name": "poolHash",
          "type": "bytes32"
        }
      ],
      "name": "PoolAlreadyExists",
      "type": "error"
    },
    {
      "inputs": [
        {
          "internalType": "bytes32",
          "name": "poolHash",
          "type": "bytes32"
        }
      ],
      "name": "PoolDoesNotHaveVoterStorage",
      "type": "error"
    },
    {
      "inputs": [
        {
          "internalType": "bytes32",
          "name": "poolHash",
          "type": "bytes32"
        }
      ],
      "name": "PoolHashDoesNotExist",
      "type": "error"
    },
    {
      "inputs": [
        {
          "internalType": "bytes32",
          "name": "poolHash",
          "type": "bytes32"
        },
        {
          "internalType": "uint256",
          "name": "startDate",
          "type": "uint256"
        },
        {
          "internalType": "uint256",
          "name": "endData",
          "type": "uint256"
        }
      ],
      "name": "VotingIsNotActive",
      "type": "error"
    },
    {
      "anonymous": false,
      "inputs": [
        {
          "indexed": true,
          "internalType": "bytes32",
          "name": "poolHash",
          "type": "bytes32"
        },
        {
          "indexed": false,
          "internalType": "bytes32",
          "name": "poolStorageHash",
          "type": "bytes32"
        }
      ],
      "name": "PoolBinded",
      "type": "event"
    },
    {
      "anonymous": false,
      "inputs": [
        {
          "indexed": true,
          "internalType": "bytes32",
          "name": "poolHash",
          "type": "bytes32"
        },
        {
          "indexed": true,
          "internalType": "address",
          "name": "voter",
          "type": "address"
        },
        {
          "indexed": false,
          "internalType": "uint8",
          "name": "selected",
          "type": "uint8"
        },
        {
          "indexed": false,
          "internalType": "bytes32",
          "name": "newPoolVoterHash",
          "type": "bytes32"
        }
      ],
      "name": "VoteSucceeded",
      "type": "event"
    },
    {
      "anonymous": false,
      "inputs": [
        {
          "indexed": true,
          "internalType": "uint256",
          "name": "version",
          "type": "uint256"
        },
        {
          "indexed": true,
          "internalType": "bytes32",
          "name": "poolHash",
          "type": "bytes32"
        }
      ],
      "name": "VotingPoolCreated",
      "type": "event"
    },
    {
      "inputs": [
        {
          "internalType": "bytes32",
          "name": "_poolHash",
          "type": "bytes32"
        }
      ],
      "name": "getPoolData",
      "outputs": [
        {
          "internalType": "uint256",
          "name": "ver",
          "type": "uint256"
        },
        {
          "internalType": "bytes32",
          "name": "voterStorageHashLocation",
          "type": "bytes32"
        },
        {
          "internalType": "uint256[]",
          "name": "candidatesVotersCount",
          "type": "uint256[]"
        },
        {
          "internalType": "address",
          "name": "owner",
          "type": "address"
        }
      ],
      "stateMutability": "view",
      "type": "function"
    },
    {
      "inputs": [
        {
          "internalType": "bytes32",
          "name": "_poolHash",
          "type": "bytes32"
        }
      ],
      "name": "isContractValid",
      "outputs": [
        {
          "internalType": "bool",
          "name": "isExist",
          "type": "bool"
        }
      ],
      "stateMutability": "view",
      "type": "function"
    },
    {
      "inputs": [
        {
          "internalType": "bytes32",
          "name": "_poolHash",
          "type": "bytes32"
        }
      ],
      "name": "isPoolHaveVoterStorage",
      "outputs": [
        {
          "internalType": "bool",
          "name": "isBinded",
          "type": "bool"
        }
      ],
      "stateMutability": "view",
      "type": "function"
    },
    {
      "inputs": [],
      "name": "merkleAllowListImplementation",
      "outputs": [
        {
          "internalType": "address",
          "name": "",
          "type": "address"
        }
      ],
      "stateMutability": "view",
      "type": "function"
    },
    {
      "inputs": [
        {
          "components": [
            {
              "internalType": "string",
              "name": "title",
              "type": "string"
            },
            {
              "internalType": "string",
              "name": "description",
              "type": "string"
            },
            {
              "internalType": "bytes32",
              "name": "merkleRootHash",
              "type": "bytes32"
            },
            {
              "internalType": "bool",
              "name": "isPrivate",
              "type": "bool"
            },
            {
              "internalType": "string[]",
              "name": "candidates",
              "type": "string[]"
            },
            {
              "internalType": "uint8",
              "name": "candidatesTotal",
              "type": "uint8"
            },
            {
              "components": [
                {
                  "internalType": "uint256",
                  "name": "startDate",
                  "type": "uint256"
                },
                {
                  "internalType": "uint256",
                  "name": "endDate",
                  "type": "uint256"
                }
              ],
              "internalType": "struct VotingPoolExpiry",
              "name": "expiry",
              "type": "tuple"
            }
          ],
          "internalType": "struct VotingPoolDataArgument",
          "name": "_poolData",
          "type": "tuple"
        }
      ],
      "name": "newVotingPool",
      "outputs": [],
      "stateMutability": "nonpayable",
      "type": "function"
    },
    {
      "inputs": [
        {
          "internalType": "bytes32",
          "name": "",
          "type": "bytes32"
        }
      ],
      "name": "poolHashToStorage",
      "outputs": [
        {
          "internalType": "bytes32",
          "name": "",
          "type": "bytes32"
        }
      ],
      "stateMutability": "view",
      "type": "function"
    },
    {
      "inputs": [
        {
          "internalType": "bytes32",
          "name": "",
          "type": "bytes32"
        },
        {
          "internalType": "address",
          "name": "",
          "type": "address"
        }
      ],
      "name": "poolStorageVoters",
      "outputs": [
        {
          "internalType": "uint8",
          "name": "selected",
          "type": "uint8"
        },
        {
          "internalType": "bool",
          "name": "isVoted",
          "type": "bool"
        }
      ],
      "stateMutability": "view",
      "type": "function"
    },
    {
      "inputs": [
        {
          "internalType": "bytes32",
          "name": "",
          "type": "bytes32"
        }
      ],
      "name": "pools",
      "outputs": [
        {
          "internalType": "uint256",
          "name": "version",
          "type": "uint256"
        },
        {
          "internalType": "address",
          "name": "owner",
          "type": "address"
        },
        {
          "internalType": "bool",
          "name": "isPrivate",
          "type": "bool"
        },
        {
          "internalType": "address",
          "name": "merkleRootContract",
          "type": "address"
        },
        {
          "internalType": "bytes32",
          "name": "poolVoterHash",
          "type": "bytes32"
        },
        {
          "internalType": "bytes32",
          "name": "voterStorageHashLocation",
          "type": "bytes32"
        },
        {
          "components": [
            {
              "internalType": "uint256",
              "name": "startDate",
              "type": "uint256"
            },
            {
              "internalType": "uint256",
              "name": "endDate",
              "type": "uint256"
            }
          ],
          "internalType": "struct VotingPoolExpiry",
          "name": "expiry",
          "type": "tuple"
        }
      ],
      "stateMutability": "view",
      "type": "function"
    },
    {
      "inputs": [
        {
          "internalType": "bytes32",
          "name": "",
          "type": "bytes32"
        }
      ],
      "name": "storageHashToPool",
      "outputs": [
        {
          "internalType": "bytes32",
          "name": "",
          "type": "bytes32"
        }
      ],
      "stateMutability": "view",
      "type": "function"
    },
    {
      "inputs": [],
      "name": "version",
      "outputs": [
        {
          "internalType": "uint256",
          "name": "",
          "type": "uint256"
        }
      ],
      "stateMutability": "view",
      "type": "function"
    },
    {
      "inputs": [
        {
          "components": [
            {
              "internalType": "bytes32",
              "name": "poolHash",
              "type": "bytes32"
            },
            {
              "internalType": "uint8",
              "name": "candidateSelected",
              "type": "uint8"
            },
            {
              "internalType": "bytes32[]",
              "name": "proofs",
              "type": "bytes32[]"
            }
          ],
          "internalType": "struct VoteArgument",
          "name": "_voteData",
          "type": "tuple"
        }
      ],
      "name": "vote",
      "outputs": [],
      "stateMutability": "nonpayable",
      "type": "function"
    }
  ],
  "bytecode": "0x60a0604052348015600e575f5ffd5b50604051611671380380611671833981016040819052602b91603b565b6001600160a01b03166080526066565b5f60208284031215604a575f5ffd5b81516001600160a01b0381168114605f575f5ffd5b9392505050565b6080516115ec6100855f395f81816102b401526106a301526115ec5ff3fe608060405234801561000f575f5ffd5b50600436106100a6575f3560e01c80637da003961161006e5780637da0039614610170578063b140cc911461018f578063b5217bb4146101b0578063c2c8992c1461026d578063c657d6c61461028c578063d18d7dcb146102af575f5ffd5b80630442eb36146100aa5780634250683f146100e357806354fd4d50146100f857806360e21bf01461010e57806366b0ef061461015d575b5f5ffd5b6100ce6100b8366004610e0e565b5f90815260016020526040902060050154151590565b60405190151581526020015b60405180910390f35b6100f66100f1366004610e25565b6102ee565b005b6101005f5481565b6040519081526020016100da565b61014461011c366004610e63565b600260209081525f928352604080842090915290825290205460ff8082169161010090041682565b6040805160ff90931683529015156020830152016100da565b6100f661016b366004610e9c565b610398565b61010061017e366004610e0e565b60036020525f908152604090205481565b6100ce61019d366004610e0e565b5f90815260036020526040902054151590565b6102216101be366004610e0e565b600160208181525f9283526040928390208054928101546002820154600383015460058401548751808901909852600685015488526007909401549487019490945293946001600160a01b0380831695600160a01b90930460ff16949216929087565b604080519788526001600160a01b039687166020808a019190915295151590880152949092166060860152608085015260a0840152815160c0840152015160e0820152610100016100da565b61010061027b366004610e0e565b60046020525f908152604090205481565b61029f61029a366004610e0e565b6105d3565b6040516100da9493929190610ed2565b6102d67f000000000000000000000000000000000000000000000000000000000000000081565b6040516001600160a01b0390911681526020016100da565b5f60408201351561030957610306826040013561069d565b90505b5f5f6103446103245f5433876107339092919063ffffffff16565b61032d86611162565b61033d6080880160608901611237565b863361074f565b9150915061035282826108d6565b6103626080850160608601611237565b610392575f805460405184927fead8c96ea0437cff771139f490e69531ef29ef174ef015a6c49514661967a00f91a35b50505050565b5f6103aa6103a583611252565b61095c565b82355f90815260016020818152604080842081516101008101835281548152938101546001600160a01b0380821686860152600160a01b90910460ff1615158584015260028201541660608501526003810154608085015260048101805483518186028101860190945280845296975094959394909360a086019383018282801561045257602002820191905f5260205f20905b81548152602001906001019080831161043e575b505050918352505060058201546020808301919091526040805180820182526006850154815260079094015491840191909152015260608101519091506001600160a01b038116156104eb576104e9816104af6040870187611307565b808060200260200160405190810160405280939291908181526020018383602002808284375f920191909152505088359150339050610a26565b505b60e08201515142108061050557508160e001516020015142115b156105455760e0820151805160209091015160405163f3afae1160e01b815286356004820152602481019290925260448201526064015b60405180910390fd5b5f610561853561055b6040880160208901611353565b33610ad0565b905061057d84336105786040890160208a01611353565b610b5f565b3385357fe0fbfd92c1c576a19434bed5a6d754024a50aa5ecb73ee2444af65ee7a63d1406105b16040890160208a01611353565b6040805160ff9092168252602082018690520160405180910390a35050505050565b5f5f60605f6105f2855f90815260016020526040902060050154151590565b6106125760405163e112ac0360e01b81526004810186905260240161053c565b5f858152600160208181526040928390208054600582015493820154600483018054875181870281018701909852808852939692959490936001600160a01b039092169291849183018282801561068657602002820191905f5260205f20905b815481526020019060010190808311610672575b505050505091509450945094509450509193509193565b5f6106d07f00000000000000000000000000000000000000000000000000000000000000006001600160a01b0316610c24565b604051632f84fd1f60e21b8152306004820152602481018490529091506001600160a01b0382169063be13f47c906044015f604051808303815f87803b158015610718575f5ffd5b505af115801561072a573d5f5f3e3d5ffd5b50505050919050565b5f61073f848484610c35565b8051906020012090509392505050565b5f5f5f8760405160200161076591815260200190565b6040516020818303038152906040528051906020012090506040518061010001604052805f548152602001856001600160a01b031681526020018715158152602001866001600160a01b031681526020015f5f1b81526020018860a0015160ff166001600160401b038111156107dd576107dd610f3b565b604051908082528060200260200182016040528015610806578160200160208202803683370190505b508152602080820184905260c08a01516040928301525f8b815260018083529083902084518155848301519181018054948601511515600160a01b026001600160a81b03199095166001600160a01b0393841617949094179093556060840151600284018054919092166001600160a01b0319919091161790556080830151600383015560a083015180516108a19260048501920190610db1565b5060c0820151600582015560e09091015180516006830155602001516007909101555f80546001019055969795505050505050565b5f8281526003602052604090205415610905576040516375ce148f60e11b81526004810183905260240161053c565b5f8281526003602090815260408083208490558383526004825291829020849055905182815283917f739fc98b39f0a22c6aec302d3925faee33ca0230250457b1d419f233e06d2529910160405180910390a25050565b80515f908152600160205260408082206005015483518352908220600401548161099f57835160405163e112ac0360e01b8152600481019190915260240161053c565b836020015160ff1681116109d9578351602085015160405163155d5f2760e11b8152600481019290925260ff16602482015260440161053c565b83515f90815260036020526040902054610a0c578351604051636d76042d60e11b8152600481019190915260240161053c565b505090515f90815260016020526040902060050154919050565b5f5f856001600160a01b0316638f4b3c0233876040518363ffffffff1660e01b8152600401610a5692919061136c565b602060405180830381865afa158015610a71573d5f5f3e3d5ffd5b505050506040513d601f19601f82011682018060405250810190610a9591906113c1565b905080610ac757604051636369af9d60e11b81526001600160a01b03841660048201526024810185905260440161053c565b95945050505050565b5f83815260016020526040812060048101805460ff8616908110610af657610af66113dc565b5f9182526020822001805491610b0b836113f0565b91905055505f83868360030154846004018560050154604051602001610b35959493929190611414565b60408051601f19818403018152919052805160209091012060039092018290555090509392505050565b5f8381526002602090815260408083206001600160a01b0386168452909152902054610100900460ff1615610bd1575f8381526004602081905260409182902054915163788efeb960e11b815290810191909152602481018490526001600160a01b038316604482015260640161053c565b60408051808201825260ff9283168152600160208083019182525f968752600281528387206001600160a01b03909616875294909452932092518354925115156101000261ffff19909316911617179055565b5f610c2f825f610d1d565b92915050565b60605f610c428580611483565b8080601f0160208091040260200160405190810160405280939291908181526020018383808284375f920182905250939450610c85925050506020870187611483565b8080601f0160208091040260200160405190810160405280939291908181526020018383808284375f920182905250939450610cc8925050506080880188611307565b610cd1916114c5565b90505f610ce460c0890160a08a01611353565b9050838383838a8a604051602001610d01969594939291906114ff565b6040516020818303038152906040529450505050509392505050565b5f81471015610d485760405163cf47918160e01b81524760048201526024810183905260440161053c565b763d602d80600a3d3981f3363d3d373d3d3d363d730000008360601b60e81c175f526e5af43d82803e903d91602b57fd5bf38360781b176020526037600983f090506001600160a01b038116610c2f5760405163b06ebf3d60e01b815260040160405180910390fd5b828054828255905f5260205f20908101928215610dea579160200282015b82811115610dea578251825591602001919060010190610dcf565b50610df6929150610dfa565b5090565b5b80821115610df6575f8155600101610dfb565b5f60208284031215610e1e575f5ffd5b5035919050565b5f60208284031215610e35575f5ffd5b81356001600160401b03811115610e4a575f5ffd5b82016101008185031215610e5c575f5ffd5b9392505050565b5f5f60408385031215610e74575f5ffd5b8235915060208301356001600160a01b0381168114610e91575f5ffd5b809150509250929050565b5f60208284031215610eac575f5ffd5b81356001600160401b03811115610ec1575f5ffd5b820160608185031215610e5c575f5ffd5b5f608082018683528560208401526080604084015280855180835260a0850191506020870192505f5b81811015610f19578351835260209384019390920191600101610efb565b50506001600160a01b0394909416606093909301929092525090949350505050565b634e487b7160e01b5f52604160045260245ffd5b60405160e081016001600160401b0381118282101715610f7157610f71610f3b565b60405290565b604051606081016001600160401b0381118282101715610f7157610f71610f3b565b604051601f8201601f191681016001600160401b0381118282101715610fc157610fc1610f3b565b604052919050565b5f82601f830112610fd8575f5ffd5b81356001600160401b03811115610ff157610ff1610f3b565b611004601f8201601f1916602001610f99565b818152846020838601011115611018575f5ffd5b816020850160208301375f918101602001919091529392505050565b8015158114611041575f5ffd5b50565b803561104f81611034565b919050565b5f6001600160401b0382111561106c5761106c610f3b565b5060051b60200190565b5f61108861108384611054565b610f99565b838152905060208101600584901b8301858111156110a4575f5ffd5b835b818110156110de5780356001600160401b038111156110c3575f5ffd5b6110cf88828801610fc9565b845250602092830192016110a6565b5050509392505050565b5f82601f8301126110f7575f5ffd5b610e5c83833560208501611076565b803560ff8116811461104f575f5ffd5b5f60408284031215611126575f5ffd5b604080519081016001600160401b038111828210171561114857611148610f3b565b604052823581526020928301359281019290925250919050565b5f6101008236031215611173575f5ffd5b61117b610f4f565b82356001600160401b03811115611190575f5ffd5b61119c36828601610fc9565b82525060208301356001600160401b038111156111b7575f5ffd5b6111c336828601610fc9565b602083015250604083810135908201526111df60608401611044565b606082015260808301356001600160401b038111156111fc575f5ffd5b611208368286016110e8565b60808301525061121a60a08401611106565b60a082015261122c3660c08501611116565b60c082015292915050565b5f60208284031215611247575f5ffd5b8135610e5c81611034565b5f60608236031215611262575f5ffd5b61126a610f77565b8235815261127a60208401611106565b602082015260408301356001600160401b03811115611297575f5ffd5b830136601f8201126112a7575f5ffd5b80356112b561108382611054565b8082825260208201915060208360051b8501019250368311156112d6575f5ffd5b6020840193505b828410156112f85783358252602093840193909101906112dd565b60408501525091949350505050565b5f5f8335601e1984360301811261131c575f5ffd5b8301803591506001600160401b03821115611335575f5ffd5b6020019150600581901b360382131561134c575f5ffd5b9250929050565b5f60208284031215611363575f5ffd5b610e5c82611106565b6001600160a01b03831681526040602080830182905283519183018290525f91908401906060840190835b818110156113b5578351835260209384019390920191600101611397565b50909695505050505050565b5f602082840312156113d1575f5ffd5b8151610e5c81611034565b634e487b7160e01b5f52603260045260245ffd5b5f6001820161140d57634e487b7160e01b5f52601160045260245ffd5b5060010190565b6001600160a01b038616815260208082018690526040820185905260a06060830181905284549083018190525f8581529182209060c0840190835b8181101561146d57835483526001938401936020909301920161144f565b5050608093909301939093525095945050505050565b5f5f8335601e19843603018112611498575f5ffd5b8301803591506001600160401b038211156114b1575f5ffd5b60200191503681900382131561134c575f5ffd5b5f610e5c368484611076565b5f81518084528060208401602086015e5f602082860101526020601f19601f83011685010191505092915050565b60c081525f61151160c08301896114d1565b828103602084015261152381896114d1565b9050828103604084015280875180835260208301915060208160051b84010160208a015f5b8381101561157a57601f198684030185526115648383516114d1565b6020958601959093509190910190600101611548565b505060ff89166060870152935061159092505050565b8360808301526115ab60a08301846001600160a01b03169052565b97965050505050505056fea2646970667358221220f334f347c9fc449391bee52f58736922d518d84f23e9273e73a9382fd402133964736f6c634300081c0033",
  "linkReferences": {},
  "deployedLinkReferences": {},
  "immutableReferences": {
    "2174": [
      {
        "length": 32,
        "start": 692
      },
      {
        "length": 32,
        "start": 1699
      }
    ]
  },
  "inputSourceName": "project/contracts/core/voting/EntryPoint.sol",
  "buildInfoId": "solc-0_8_28-b8c94dfb152e41ecb6868a080c3d0b9a75c016ed"
}