{
  "_format": "hh3-artifact-1",
  "contractName": "MerkleAllowlist",
  "sourceName": "contracts/core/MerkleRootStructure/MerkleAllowList.sol",
  "abi": [
    {
      "inputs": [],
      "stateMutability": "nonpayable",
      "type": "constructor"
    },
    {
      "inputs": [],
      "name": "InvalidInitialization",
      "type": "error"
    },
    {
      "inputs": [],
      "name": "NotInitializing",
      "type": "error"
    },
    {
      "inputs": [
        {
          "internalType": "address",
          "name": "owner",
          "type": "address"
        }
      ],
      "name": "OwnableInvalidOwner",
      "type": "error"
    },
    {
      "inputs": [
        {
          "internalType": "address",
          "name": "account",
          "type": "address"
        }
      ],
      "name": "OwnableUnauthorizedAccount",
      "type": "error"
    },
    {
      "anonymous": false,
      "inputs": [
        {
          "indexed": false,
          "internalType": "uint64",
          "name": "version",
          "type": "uint64"
        }
      ],
      "name": "Initialized",
      "type": "event"
    },
    {
      "anonymous": false,
      "inputs": [
        {
          "indexed": true,
          "internalType": "address",
          "name": "previousOwner",
          "type": "address"
        },
        {
          "indexed": true,
          "internalType": "address",
          "name": "newOwner",
          "type": "address"
        }
      ],
      "name": "OwnershipTransferred",
      "type": "event"
    },
    {
      "inputs": [
        {
          "internalType": "address",
          "name": "_owner",
          "type": "address"
        },
        {
          "internalType": "bytes32",
          "name": "initialRoot",
          "type": "bytes32"
        }
      ],
      "name": "initialize",
      "outputs": [],
      "stateMutability": "nonpayable",
      "type": "function"
    },
    {
      "inputs": [
        {
          "internalType": "address",
          "name": "account",
          "type": "address"
        },
        {
          "internalType": "bytes32[]",
          "name": "proof",
          "type": "bytes32[]"
        }
      ],
      "name": "isAllowed",
      "outputs": [
        {
          "internalType": "bool",
          "name": "",
          "type": "bool"
        }
      ],
      "stateMutability": "view",
      "type": "function"
    },
    {
      "inputs": [],
      "name": "merkleRoot",
      "outputs": [
        {
          "internalType": "bytes32",
          "name": "",
          "type": "bytes32"
        }
      ],
      "stateMutability": "view",
      "type": "function"
    },
    {
      "inputs": [],
      "name": "owner",
      "outputs": [
        {
          "internalType": "address",
          "name": "",
          "type": "address"
        }
      ],
      "stateMutability": "view",
      "type": "function"
    },
    {
      "inputs": [],
      "name": "renounceOwnership",
      "outputs": [],
      "stateMutability": "nonpayable",
      "type": "function"
    },
    {
      "inputs": [
        {
          "internalType": "address",
          "name": "newOwner",
          "type": "address"
        }
      ],
      "name": "transferOwnership",
      "outputs": [],
      "stateMutability": "nonpayable",
      "type": "function"
    }
  ],
  "bytecode": "0x608060405234801561000f575f5ffd5b50338061003557604051631e4fbdf760e01b81525f600482015260240160405180910390fd5b61003e8161004c565b5061004761009b565b61014d565b5f80546001600160a01b038381166001600160a01b0319831681178455604051919092169283917f8be0079c531659141344cd1fd0a4f28419497f9722a3daafe3b4186f6b6457e09190a35050565b7ff0c57e16840df040f15088dc2f81fe391c3923bec73e23a9662efc9c229c6a00805468010000000000000000900460ff16156100eb5760405163f92ee8a960e01b815260040160405180910390fd5b80546001600160401b039081161461014a5780546001600160401b0319166001600160401b0390811782556040519081527fc7f505b2f371ae2175ee4913f4499e1f2633a7b5936321eed1cdaeb6115181d29060200160405180910390a15b50565b6105098061015a5f395ff3fe608060405234801561000f575f5ffd5b5060043610610060575f3560e01c80632eb4a7ab14610064578063715018a6146100805780638da5cb5b1461008a5780638f4b3c02146100a4578063be13f47c146100c7578063f2fde38b146100da575b5f5ffd5b61006d60015481565b6040519081526020015b60405180910390f35b6100886100ed565b005b5f546040516001600160a01b039091168152602001610077565b6100b76100b23660046103fd565b610100565b6040519015158152602001610077565b6100886100d536600461047e565b61018b565b6100886100e83660046104a6565b61029f565b6100f56102e1565b6100fe5f61030d565b565b5f6101096102e1565b6040516bffffffffffffffffffffffff19606086901b1660208201525f906034016040516020818303038152906040528051906020012090506101828484808060200260200160405190810160405280939291908181526020018383602002808284375f9201919091525050600154915084905061035c565b95945050505050565b7ff0c57e16840df040f15088dc2f81fe391c3923bec73e23a9662efc9c229c6a008054600160401b810460ff16159067ffffffffffffffff165f811580156101d05750825b90505f8267ffffffffffffffff1660011480156101ec5750303b155b9050811580156101fa575080155b156102185760405163f92ee8a960e01b815260040160405180910390fd5b845467ffffffffffffffff19166001178555831561024257845460ff60401b1916600160401b1785555b61024b8761030d565b6001869055831561029657845460ff60401b19168555604051600181527fc7f505b2f371ae2175ee4913f4499e1f2633a7b5936321eed1cdaeb6115181d29060200160405180910390a15b50505050505050565b6102a76102e1565b6001600160a01b0381166102d557604051631e4fbdf760e01b81525f60048201526024015b60405180910390fd5b6102de8161030d565b50565b5f546001600160a01b031633146100fe5760405163118cdaa760e01b81523360048201526024016102cc565b5f80546001600160a01b038381166001600160a01b0319831681178455604051919092169283917f8be0079c531659141344cd1fd0a4f28419497f9722a3daafe3b4186f6b6457e09190a35050565b5f826103688584610371565b14949350505050565b5f81815b84518110156103ab576103a182868381518110610394576103946104bf565b60200260200101516103b3565b9150600101610375565b509392505050565b5f8183106103cd575f8281526020849052604090206103db565b5f8381526020839052604090205b9392505050565b80356001600160a01b03811681146103f8575f5ffd5b919050565b5f5f5f6040848603121561040f575f5ffd5b610418846103e2565b9250602084013567ffffffffffffffff811115610433575f5ffd5b8401601f81018613610443575f5ffd5b803567ffffffffffffffff811115610459575f5ffd5b8660208260051b840101111561046d575f5ffd5b939660209190910195509293505050565b5f5f6040838503121561048f575f5ffd5b610498836103e2565b946020939093013593505050565b5f602082840312156104b6575f5ffd5b6103db826103e2565b634e487b7160e01b5f52603260045260245ffdfea26469706673582212200815bc3d3380da4cc612c6cb1a531eb683625a6e892755845c04a404e6cf5cf064736f6c634300081c0033",
  "linkReferences": {},
  "deployedLinkReferences": {},
  "immutableReferences": {},
  "inputSourceName": "project/contracts/core/MerkleRootStructure/MerkleAllowList.sol",
  "buildInfoId": "solc-0_8_28-c579a0b3a66ba5a62ee6be2102182badff3d436b"
}